:020000040800F2
:10000000604A0020850200087D390008B7330008E7
:10001000793900080B080008C14100080000000001
:10002000000000000000000000000000C501000802
:10003000071400080000000021020008493A0008E7
:100040009F0200089F0200089F0200089F0200080C
:100050009F0200089F0200089F0200089F020008FC
:100060009F0200089F0200089F0200089F020008EC
:100070009F0200089F0200089F0200089F020008DC
:100080009F0200089F0200089F0200089F020008CC
:10009000110800089F0200089F0200089F02000844
:1000A0009F0200089F0200089F0200089F020008AC
:1000B0009F0200089F0200089F0200089F0200089C
:1000C0009F0200089F0200089F0200089F0200088C
:1000D0009F0200089F0200089F0200089F0200087C
:1000E0009F0200089F0200089F0200089F0200086C
:1000F0009F0200089F0200089F0200089F0200085C
:100100009F0200089F0200089F0200089F0200084B
:100110009F0200089F020008453B00089F0200085C
:100120009F0200089F020008ED1200089F020008CD
:100130009F0200089F0200089F0200089F0200081B
:10014000D50800089F0200089F0200089F020008CF
:100150009F0200089F0200089F0200089F020008FB
:100160009F0200089F0200089F0200089F020008EB
:100170009F0200089F0200089F0200080000000084
:100180009F0200089F0200089F0200089F020008CB
:100190009F0200089F0200089F0200089F020008BB
:1001A00000000000000000009F020008DFF810D0EF
:1001B00000F0EEFA0048004771420008AFF30080FB
:1001C000604A00202C4B19680868B0E8F04F80F3B3
:1001D0000988BFF36F8F4FF0000080F311887047DC
:1001E0000000000008480068006880F308884FF0AD
:1001F000000080F3148862B661B6BFF34F8FBFF37F
:100200006F8F00DF00BF00BF08ED00E0DFF80C00DB
:10021000016841F470010160704700BF88ED00E0A3
:10022000EFF30980BFF36F8F134B1A681EF0100FA6
:1002300008BF20ED108A20E9F04F106009B44FF09C
:10024000500080F31188BFF34F8FBFF36F8F04F01E
:100250006DFE4FF0000080F3118809BC1968086832
:10026000B0E8F04F1EF0100F08BFB0EC108A80F31A
:100270000988BFF36F8F704734000020EFF30580CB
:10028000704700000648804706480047FEE7FEE743
:10029000FEE7FEE7FEE7FEE7FEE7FEE7FEE7FEE736
:1002A000313B0008AD0100082DE9F05F0546002054
:1002B00092469B4688460646814640241BE02846D7
:1002C00041464746224600F0ACF953465A46C01A0A
:1002D000914110D311461846224600F093F92D1A89
:1002E00067EB01084F4622460120002100F08AF901
:1002F00017EB00094E41201EA4F10104DFDC484643
:1003000031462A464346BDE8F09F40EA01039B0779
:1003100003D009E008C9121F08C0042AFAD203E07A
:1003200011F8013B00F8013B521EF9D27047D2B2DE
:1003300001E000F8012B491EFBD270470022F6E7CE
:1003400010B513460A4604461946FFF7F0FF20464B
:1003500010BD2DE9FE4F804681EA0300C00F0C4618
:10036000009021F0004123F00045B8EB0200A941C4
:1003700005D24046214690461C460B46024623F0D5
:100380000040104347D0270DC7F30A00C3F30A51BA
:100390000290401A019040286BDAC3F3130040F436
:1003A000801B0098924620B10023D2EB030A63EB36
:1003B0000B0B01985946C0F14002504600F022F95B
:1003C00006460D4650465946019A00F03AF910EBA0
:1003D00008006141002487EA115284EAE7731A4356
:1003E00040D0009A62B3019A012A4FEA075215DC05
:1003F000001B61EB02014FF0004202EA0752CDE917
:100400000042001C41F5801132462B4600F071F984
:1004100003B0BDE8F08F40462146F9E7001B61EBD1
:100420000201001C41F5801300185B412018A2F561
:10043000001747EB030140EAD570B6196D4111E092
:100440006D084FEA360645EAC0754FEA0752001BB1
:1004500061EB0201001C41F5801149084FEA3000B0
:100460000019514132462B4603B0BDE8F04F00F071
:1004700031B90098012240000023D0EB020263EB67
:10048000E073009821464FEAE074B8EB000061EB9E
:100490000401E9E783F000435BE781F0004158E79E
:1004A0002DE9FE4F81EA030404F0004421F00041ED
:1004B00000944FF0000B23F0004350EA01045ED09B
:1004C00052EA03045BD0C3F30A54C1F30A552C4427
:1004D000A4F2F3340194A0FB0254C1F3130141F4DC
:1004E0008011C3F3130343F4801301FB024400FBA8
:1004F000034E840A970A44EA815447EA8357A4FBCF
:10050000076802958D0A05FB07854FEA932C04FBCB
:100510000C542705029D4FEA065847EA1637B5EBFB
:1005200008056EEB070C870E920E47EA811742EA28
:100530008312A7FB0201B6EB0B0164EB00042B0D49
:1005400043EA0C335E1844EB1C50DA465146E7FB95
:100550000201C5F313044FEA0B3343EA14534FEA85
:100560000432019C43EA0603A4F10C040294009CAB
:10057000CDE900B400F0BDF803B0BDE8F08F002075
:100580000146F9E70EB5C10F80EAE0700844CA07DA
:10059000002140F233438DE80E000A460B4600F07E
:1005A000A8F803B000BD00F0004230F000400AD0CF
:1005B000C10D01F56071C0F3160042EA0151C20895
:1005C00040071143704700200146704701F0004387
:1005D00030B421F0004150EA010206D00A0DA2F524
:1005E0006072C1F31301002A02DC30BC00207047A6
:1005F000440F44EAC104C100E01830BC00EBC25013
:1006000000F031B8202A04DB203A00FA02F1002081
:1006100070479140C2F1200320FA03F31943904040
:100620007047202A04DB203A21FA02F000217047AB
:1006300021FA02F3D040C2F120029140084319464A
:100640007047202A06DBCB17203A41FA02F043EA32
:10065000E07306E041FA02F3D040C2F1200291407B
:100660000843194670470029A8BF7047401C49003D
:1006700008BF20F00100704710B4B0FA80FC00FA07
:100680000CF050EA010404BF10BC704749B1CCF132
:10069000200421FA04F411FA0CF118BF01212143BE
:1006A0000843A3EB0C01CB1D4FEA00614FEA102079
:1006B00042BF002010BC704700EBC350104400291B
:1006C000A4BF10BC7047401C490008BF20F00100C7
:1006D00010BC704710B5141E73F1000408DA401CFA
:1006E00041F1000192185B411A4301D120F0010051
:1006F00010BD2DE9F04D92469B4611B1B1FA81F241
:1007000002E0B0FA80F220329046FFF77BFF044609
:100710000F4640EA0A0041EA0B0153465A46084395
:1007200013D0114653EA010019D0C8F140025046D7
:10073000FFF777FF05460E46504659464246FFF7FB
:1007400061FF084305D0012004E020463946BDE89A
:10075000F08D0020054346EAE0762C4337430A98A3
:100760006305E40AA0EB08000022FD0A44EA4754AE
:100770000A3002D500200146E9E701051019694158
:10078000DDE9084500196941BDE8F04DA2E7000028
:10079000064C074D06E0E06840F0010394E80700CE
:1007A00098471034AC42F6D3FFF704FDCC5B000849
:1007B000EC5B000870B58C1810F8015B15F00703AE
:1007C00001D110F8013B2A1106D110F8012B03E0EA
:1007D00010F8016B01F8016B5B1EF9D12B0705D4F2
:1007E0000023521E0DD401F8013BFAE710F8013B3B
:1007F000CB1A921C03E013F8015B01F8015B521E57
:10080000F9D5A142D8D3002070BD00BFFEE700009B
:1008100010B509480068406900F0020038B1074887
:1008200001220368064801680348984700BF024850
:1008300000F0FEFF10BD0000C4050020E000002015
:10084000140000208EB000BF4FF0FF3205A91E48F3
:10085000006804F0CDFD059C40F20620844209D1D9
:10086000142209A96846FFF750FD05A80FC802F039
:100870003DFE1CE040F2951084420AD1142209A9E1
:100880006846FFF742FD1148056805A80FC8A8474C
:100890000DE040F26510844209D1142209A968468E
:1008A000FFF733FD0948456805A80FC8A847074961
:1008B00088688047064800780028C5D103F0C4FC4A
:1008C000012003490870BFE718000020CC00002079
:1008D0001C00002010B509480068406900F00200C3
:1008E00038B1074802220368064801680348984760
:1008F00000BF024800F09CFF10BD0000EC05002086
:10090000E000002018000020F8B504460D46164609
:100910001F4640F2FF100E49086000208860C86042
:1009200008200861200A0B4908704C70280A88705A
:10093000CD70300A08714E71380A8871CF716B46DC
:100940000A460349044800F077FD04490860F8BDF1
:1009500058450020B0000020EC050020B800002021
:1009600070B505460C46012004EB84011E4A02EBDB
:10097000C1010862002004EB840102EBC10188611F
:10098000012004EB840102EBC101C861002004EBEB
:10099000840142F8310004EB840102EBC10148609C
:1009A00004EB840102EBC101886004EB840102EBDB
:1009B000C101C86004EB840102EBC101486104EB92
:1009C000840102EBC101086104EB840002EBC00169
:1009D000284600F0DDFD284601F0C3F90221284633
:1009E00000F015FD70BD0000B84500208EB000BFBE
:1009F0004FF0FF3205A91148006804F0F9FC059C8E
:100A000040F20520844209D1142209A96846FFF763
:100A10007CFC05A80FC802F069FDE9E7B4F5007F8A
:100A200002D8B4F5017FE3D8142209A96846FFF77C
:100A30006CFC05A80FC802F02BFDD9E714000020BC
:100A4000F0B593B007460D461646701EC4B204EBCF
:100A5000C40001A901EB800000F11C0304EBC400F9
:100A600001EB80020021384600F025FE04EBC400B3
:100A700001AA02EB800100231A46284604F03AFC42
:100A800013B0F0BD1CB500BF3A49B1F9020000F047
:100A900021FB3849B1F9000000F09CFB002000F078
:100AA000ADF83548D0ED031AF1EE611AB0EE611AD7
:100AB0003048B0F9040001EE900AF8EEE11AF0EEC9
:100AC000610A2C48B0F9060001EE900AF8EEE11A2E
:100AD000B0EE610A684602F0F3FE684600F0D0F816
:100AE0002448007A022817D12248407A022813D1DC
:100AF0009FED220A224880ED030A9FED200A21483B
:100B000080ED030A002005E000211F4A02EB40129D
:100B1000D182401C0428F7DB194991ED030AB1EE9C
:100B2000400ABDEEC00A10EE101A08B200231A46A1
:100B3000194600F02BF8144CB4F97630B4F956206D
:100B4000B4F93610B4F9160003F0CCFF0D4890ED5F
:100B5000030AB1EE400ABDEEC00A10EE100A01B25F
:100B600000231A461846FFF7CFFE052003F0B3FB1B
:100B70008AE70000904500200846002000000000A1
:100B8000304600204846002048440020F8B504467E
:100B90000D4616461F4640F2FF100E490860002021
:100BA0008860C86008200861200A0B4908704C70F2
:100BB000280A8870CD70300A08714E71380A887121
:100BC000CF716B460A460349044800F035FC0449DE
:100BD0000860F8BD40450020A4000020C4050020A6
:100BE000AC00002090ED050A80ED020A90ED050AA8
:100BF00080ED040A0021C1607047000010B52DEDA2
:100C0000028B044618480188204600F03DFB00EEA8
:100C1000100AB8EEC00AB0EE408A9FED140AC8EE82
:100C2000000AF0EE608A1248F0EE680A9FED110AA1
:100C3000C16B8847104880ED020A0B48B0F90200EA
:100C400001EE100AB8EEC11AF0EE410A084890ED24
:100C50000B1AB0EE410A0948C16B8847064880ED7F
:100C6000030ABDEC028B10BD084500208805B64183
:100C7000E8010020000000000846002028020020B3
:100C800070B5054600242AE035F814001B4901EB35
:100C900044110881194A02EB4412B2F9022001EE14
:100CA000102AB8EEC11AF0EE410A144A02EB4412BF
:100CB000B2F9082001EE102AB8EEC11AB0EE410ACE
:100CC0000F4A52F8240052F82420916B8847BDEE59
:100CD000C00A10EE100A00B225F81400641C042C9F
:100CE000D2DB002006E035F81010044A02EB401277
:100CF000D182401C0428F6DB70BD0000484400206F
:100D0000D801002007480088012803DA012006499D
:100D1000087702E000200449087700200149088094
:100D200070470000BC0000207045002010B52DED7C
:100D3000028B0446B0EE408AF0EE608A24B99FED43
:100D40003C0ABDEC028B10BD84ED008AC4ED018A23
:100D500094ED000AD4ED010A30EE600A84ED020A37
:100D600094ED020AD4ED030A30EE600A84ED040A21
:100D700094ED050AD4ED020A20EE200A84ED080A5B
:100D800094ED090AD4ED060A94ED021A00EE810AE8
:100D900084ED090A94ED020AD4ED030A30EE600AEC
:100DA000D4ED070A20EE200A84ED0A0AD4ED0E0ADB
:100DB000B0EE600A04F1240003F02FFA94ED020A69
:100DC000B5EEC00AF1EE10FA02DD94ED020A03E07E
:100DD00094ED020AB1EE400AD4ED0D0AB4EEE00A39
:100DE000F1EE10FA08DB94ED080AD4ED0A0A30EEB1
:100DF000200A84ED0B0A0BE094ED080AD4ED090AF1
:100E000030EE200AD4ED0A0A30EE200A84ED0B0AF7
:100E1000D4ED0C0AB0EE600A04F12C0003F0FDF9E9
:100E200094ED020A84ED030A94ED0B0A89E70000B1
:100E30000000000010B52DED028B0446B0EE408A94
:100E4000F0EE608A24B99FED2D0ABDEC028B10BD37
:100E500084ED008AC4ED018A94ED000AD4ED010A04
:100E600030EE600A84ED020A94ED020AD4ED030A22
:100E700030EE600A84ED040A94ED050AD4ED020A0E
:100E800020EE200A84ED080A94ED090AD4ED060A42
:100E900094ED021A00EE810A84ED090A94ED020A2B
:100EA000D4ED030A30EE600AD4ED070A20EE200AE2
:100EB00084ED0A0AD4ED0E0AB0EE600A04F12400B3
:100EC00003F0ABF994ED080AD4ED090A30EE200ADC
:100ED000D4ED0A0A30EE200A84ED0B0AD4ED0C0A98
:100EE000B0EE600A04F12C0003F097F994ED020AC9
:100EF00084ED030A94ED0B0AA7E700000000000050
:100F000010B52DED028B0446B0EE408AF0EE608AFB
:100F100024B99FED3C0ABDEC028B10BD84ED008A24
:100F2000C4ED018A94ED000AD4ED010A30EE600AA6
:100F300084ED020A94ED020AD4ED030A30EE600A51
:100F400084ED040A94ED050AD4ED020A20EE200A8D
:100F500084ED080A94ED090AD4ED060A94ED021A0C
:100F600000EE810A84ED090A94ED020AD4ED030A29
:100F700030EE600AD4ED070A20EE200A84ED0A0A5A
:100F8000D4ED0E0AB0EE600A04F1240003F045F936
:100F900094ED020AB5EEC00AF1EE10FA02DD94ED0E
:100FA000020A03E094ED020AB1EE400AD4ED0D0A04
:100FB000B4EEE00AF1EE10FA08DB94ED080AD4ED85
:100FC0000A0A30EE200A84ED0B0A0BE094ED080AC1
:100FD000D4ED090A30EE200AD4ED0A0A30EE200AD8
:100FE00084ED0B0AD4ED0C0AB0EE600A04F12C007B
:100FF00003F013F994ED020A84ED030A94ED0B0A51
:1010000089E700000000000010B52DED028B0446BA
:10101000B0EE408AF0EE608A24B99FED2D0ABDEC57
:10102000028B10BD84ED008AC4ED018A94ED000AA4
:10103000D4ED010A30EE600A84ED020A94ED020A52
:10104000D4ED030A30EE600A84ED040A94ED050A3B
:10105000D4ED020A20EE200A84ED080A94ED090A74
:10106000D4ED060A94ED021A00EE810A84ED090A15
:1010700094ED020AD4ED030A30EE600AD4ED070ABB
:1010800020EE200A84ED0A0AD4ED0E0AB0EE600AC2
:1010900004F1240003F0C1F894ED080AD4ED090A24
:1010A00030EE200AD4ED0A0A30EE200A84ED0B0A55
:1010B000D4ED0C0AB0EE600A04F12C0003F0ADF898
:1010C00094ED020A84ED030A94ED0B0AA7E70000F1
:1010D0000000000010B52DED088B0446344890ED5B
:1010E000010A344880ED040A2046FFF74BFA41EC30
:1010F0001B0B9FED310B53EC102BFFF7D1F941EC9B
:10110000190B2C4890ED050A10EE101A0846FFF74F
:101110004AFA41EC1A0B53EC192BFFF71AF941EC80
:10112000180BFFF753FA23494861084690ED050A6A
:10113000DFED230AB4EEE00AF1EE10FA04D89FEDD9
:10114000200A80ED050A0DE01A4890ED050ADFED52
:101150001D0AB4EEE00AF1EE10FA03DB9FED190A66
:1011600080ED050A134890ED041AF0EE410A90ED67
:10117000051AB0EE410A1448C16B88470D4880ED4E
:10118000020A1248B0F9020001EE100AB8EEC11AC4
:10119000F0EE410A0C4890ED0B1AB0EE410A0C48F3
:1011A000C16B8847034880ED030ABDEC088B10BD76
:1011B00070450020484600207B14AE47E17A843F0A
:1011C000000061C400004344F002002024450020D8
:1011D0003003002010B52DED088B0446244890ED17
:1011E000040A244880ED000A2046FFF7CBF941ECC1
:1011F0001B0B9FED210B53EC102BFFF751F941EC2A
:10120000190B1C4890ED010A10EE101A0846FFF762
:10121000CAF941EC1A0B53EC192BFFF79AF841EC81
:10122000180BFFF7D3F913494860084690ED001AF0
:10123000F0EE410A90ED011AB0EE410A1048C16B80
:1012400088470C4880ED020A094890ED051AF0EE37
:10125000410A0B4890ED0B1AB0EE410A0948C16BE8
:101260008847044880ED030ABDEC088B10BD0000E0
:101270007045002030460020FCA9F1D24D62503F5D
:1012800070020020B00200200246501AB0F5805FC4
:1012900003DDA0F5F850FF3805E010F5805F02DAB5
:1012A00041F6FF73184470470FB4002004E007A90B
:1012B000095C064A1154401C0828F8DB03480088E2
:1012C000401C0249088004B070470000BC000020A8
:1012D0000FB4002004E007A9095C034A1154401C24
:1012E0000828F8DB04B07047C400002010B502489D
:1012F00000F06EFD10BD0000B00600200146087829
:1013000010381823B0FBF3F20848805CC865032A44
:1013100005D908686FF30900001D886503E00868B7
:101320006FF309008865886D70470000705B0008E6
:10133000014600208A6A8B69CBB932B1012A0DD0EF
:10134000022A03D0032A10D10EE000BFCB6A03F0BB
:101350008073B3F1807F00D1012007E0CB6AB3F145
:10136000C07F00D1012001E000E000BF34E08B69C4
:10137000B3F5005F1AD132B1012A07D0022A03D097
:10138000032A11D10AE000BF01200EE0CB6A03F06E
:101390008073B3F1807F00D1012006E0CB6AB3F106
:1013A000C07F00D1012000E000BF15E032B1012A6A
:1013B00005D0022A04D0032A0CD103E000BF00BFED
:1013C000012008E0CB6A03F08073B3F1807F00D185
:1013D000012000E000BF00BF704730B504682468FA
:1013E00024F4802405682C60046863608468402CC1
:1013F00004D10468A2600468E16003E00468A160AD
:101400000468E26030BD704772B600BFFEE710B5F9
:10141000024692F82030012B01D0022B06D1106831
:101420004069084314686061002010BD506A40F4B0
:10143000802050620120F8E7F0B504460D461E46B4
:1014400094F8207020688368A86800B900E000BFA5
:10145000012F01D0022F7CD103F0806030B903F05E
:10146000006018B903F08050002873D0C3F3016105
:10147000022905D9606A40F4000060620120F0BDD5
:10148000012088403060A86860B9B5F800C0E868FD
:1014900040EA4C5C206800F5C07000EB0110C0F819
:1014A00000C00FE0D5E901C040EACC00D5F80CC07F
:1014B00040EA0C00D4F800C00CF5C07C0CEB011C19
:1014C000CCF80000D5F810C0206800F5C07000EB23
:1014D0000110C0F804C0287D01280ED1206800F555
:1014E000C07000EB0110406840F4807C206800F57B
:1014F000C07000EB0110C0F804C0D079000692F86B
:1015000006C040EA0C4092F805C040EA0C2C107965
:101510004CEA000C206800F5C07000EB0110C0F828
:101520000CC0D078000692F802C040EA0C4092F855
:1015300001C040EA0C2092F800C040EA0C00D4F848
:1015400000C00CF5C07C0CEB011CCCF80800206836
:1015500001E016E00FE000F5C07000EB011000683C
:1015600040F0010C206800F5C07000EB0110C0F8DD
:1015700000C0002083E7606A40F400106062012030
:101580007DE7606A40F480206062012077E7000018
:10159000F0B504460A46216894F82050012D01D088
:1015A000022D7ED1424901F50071086840F001002A
:1015B0000860086820F47C5008600868566A40EAB1
:1015C00006200860107D00F01F06012000FA06F3D7
:1015D000C8699843C861A1F50071D069C8B9D1F84C
:1015E0000C029843C1F80C02908880B2968940EAB8
:1015F000064601F51070576940F83760108880B2D0
:10160000168940EA064601F51070576900EBC700DD
:101610004660D069012819D1D1F80C021843C1F8ED
:101620000C02908880B2168840EA064601F51070D8
:10163000576940F83760908980B2168940EA0646BB
:1016400001F51070576900EBC7004660906928B932
:10165000D1F804029843C1F8040204E0D1F804026E
:101660001843C1F80402106928B9D1F8140298434C
:10167000C1F8140204E0D1F814021843C1F81402AE
:10168000106A012804D1D1F81C021843C1F81C02C9
:10169000D1F8000220F00100C1F800020020F0BDE6
:1016A000FFE7606A40F4802060620120F7E70000F5
:1016B00000640040704770B5044694F82050012D36
:1016C00001D0022D7DD151B92068C06800F003001F
:1016D00080B9606A40F400106062012070BD20682B
:1016E000006900F0030028B9606A40F400106062ED
:1016F0000120F3E7206800F5D87000EB01100068C6
:1017000000F004009060906840B9206800F5D8703F
:1017100000EB01100068400D106007E0206800F544
:10172000D87000EB01100068C0085060206800F518
:10173000D87000EB0110006800F00200D060206853
:1017400000F5D87000EB0110406800F00F00106148
:10175000206800F5D87000EB0110406800F47F406D
:10176000000A9061206800F5D87000EB0110406815
:10177000000C5061206800F5D87000EB0110806803
:101780001870206800F5D87000EB0110806800F434
:101790007F40000A5870206800F5D87000EB0110F7
:1017A000806800F47F00000C9870206800F5D87005
:1017B00000EB01108068000ED870206800F5D8702A
:1017C00000E02FE000EB0110C0681871206800F500
:1017D000D87000EB0110C06800F47F40000A587117
:1017E000206800F5D87000EB0110C06800F47F009D
:1017F000000C9871206800F5D87000EB0110C068EB
:10180000000ED87131B92068C06840F02000266809
:10181000F06005E02068006940F020002668306133
:1018200000205BE7606A40F480206062012055E799
:101830002DE9F05F04460025206846692068D0F84D
:101840000490206887682068D0F80CA02068D0F841
:1018500010B02068D0F8188006F00100002855D09C
:1018600007F00100C0B101202168886007F0020084
:1018700018B1204600F0A5FA0EE007F0040010B100
:1018800045F4006508E007F0080010B145F4805504
:1018900002E0204600F094FA07F48070C8B14FF4DB
:1018A00080702168886007F4007018B1204600F04D
:1018B0008AFA0EE007F4806010B145F4005508E0A4
:1018C00007F4006010B145F4804502E0204600F0C6
:1018D00079FA07F48030C8B14FF48030216888600D
:1018E00007F4003018B1204600F06FFA0EE007F45C
:1018F000802010B145F4004508E007F4002010B145
:1019000045F4803502E0204600F05EFA06F008005B
:1019100038B10AF0100020B145F40075102021689C
:10192000C86006F0040040B10AF0080028B10820A1
:101930002168C860204600F00FFA06F0020038B1B6
:101940002068C06800F0030010B1204600F005FADE
:1019500006F0400038B10BF0100020B145F480656E
:1019600010202168086106F0200040B10BF008004B
:1019700028B1082021680861204600F0EFF906F040
:10198000100038B12068006900F0030010B1204653
:1019900000F0E5F906F4003040B109F0100028B17C
:1019A000102021684860204600F0DAF906F4803003
:1019B00040B109F0080028B108202168486020469D
:1019C00000F004FA06F4004088B309F0040078B38C
:1019D00006F4807020B108F0010008B145F001055F
:1019E00006F4007020B108F0020008B145F00205CD
:1019F00006F4806020B108F0040008B145F0040549
:101A000006F40060A0B108F0700088B108F0700022
:101A1000402817D006DC10280BD020280CD0302806
:101A200019D10CE0502810D0602814D110E01DE02E
:101A300019E045F008050FE045F010050CE045F011
:101A4000200509E045F0400506E045F0800503E08B
:101A500045F4807500E000BF00BF2068806920F079
:101A60007000216888610420216848602DB1606A97
:101A7000284360622046FFF71DFEBDE8F09F70B569
:101A800004460CB9012070BD94F8200010B920461E
:101A900000F0B0F82068006840F00100216808609C
:101AA00000F082FC05460DE000F07EFC401B0A2899
:101AB00008D9606A40F400306062052084F8200094
:101AC0000120E0E72068406800F001000028EBD02A
:101AD0002068006820F002002168086000F064FCC3
:101AE00005460DE000F060FC401B0A2808D9606A3A
:101AF00040F400306062052084F820000120C2E735
:101B00002068406800F002000028EBD1207E012808
:101B100006D12068006840F080002168086005E078
:101B20002068006820F0800021680860607E01283D
:101B300006D12068006840F040002168086005E098
:101B40002068006820F0400021680860A07E01281D
:101B500006D12068006840F020002168086005E098
:101B60002068006820F0200021680860E07E0128DD
:101B700006D12068006820F010002168086005E0A8
:101B80002068006840F0100021680860207F01286C
:101B900006D12068006840F008002168086005E070
:101BA0002068006820F0080021680860607F012834
:101BB00006D12068006840F004002168086005E054
:101BC0002068006820F0040021680860D4E9020160
:101BD000084321690843616908436168491E084355
:101BE0002168C86100206062012084F82000002084
:101BF00049E7000010B586B00446142101A8FEF79D
:101C00009DFB4F492068884241D14E480068401CE6
:101C10004C4908600846006801280FD100BF002029
:101C200000904948006840F0007047490860084645
:101C3000006800F00070009000BF00BF00BF0020EF
:101C4000009041481038006840F008003E491039C3
:101C500008600846006800F00800009000BF00BF60
:101C600003200190022002900020039003200490A2
:101C70000920059001A9354800F08AFA00220521C3
:101C8000142000F041FC142000F02EFC55E03049F7
:101C90002068884251D100BF002000902A48006887
:101CA00040F08060284908600846006800F08060C5
:101CB000009000BF00BF23480068401C2149086015
:101CC0000846006801280FD100BF002000901E4880
:101CD000006840F000701C4908600846006800F089
:101CE0000070009000BF00BF00BF002000901648A9
:101CF0001038006840F002001349103908600846A7
:101D0000006800F00200009000BF00BF4FF4405098
:101D100001900220029000200390032004900920EB
:101D2000059001A90B4800F033FA0022052140205C
:101D300000F0EAFB402000F0D7FB06B010BD000029
:101D4000006400402000002040380240000C0240A7
:101D500000680040000402407047704770477047B9
:101D6000704770B5044694F82000012822D1022063
:101D700084F820002068006820F0010021680860D5
:101D800000F012FB05460DE000F00EFB401B0A2898
:101D900008D9606A40F400306062052084F82000B1
:101DA000012070BD2068406800F001000028EBD1E0
:101DB0006062F6E7606A40F4002060620120F0E7AC
:101DC0007047704770477047704770477047000012
:101DD000F8B50446002000908C4800684FF4165176
:101DE000B0FBF1F7A56D2E6894F85C1008208840D0
:101DF000304098B12068006800F0040070B120689D
:101E0000006820F004002168086094F85C10082045
:101E10008840A860606D40F00100606594F85C1037
:101E200001208840304068B12068406900F080009F
:101E300040B194F85C1001208840A860606D40F0CB
:101E40000200606594F85C1004208840304068B15E
:101E50002068006800F0020040B194F85C10042093
:101E60008840A860606D40F00400606594F85C10E4
:101E700010208840304078B32068006800F00800E7
:101E800050B394F85C1010208840A8602068006867
:101E900000F4802080B12068006800F4002028B998
:101EA000206CC8B12046216C884715E0A06C98B121
:101EB0002046A16C88470FE02068006800F480701D
:101EC00028B92068006820F0080021680860206CAC
:101ED00010B12046216C884794F85C10202088407F
:101EE0003040002865D02068006800F0100000280D
:101EF0005FD094F85C1020208840A86094F83500EA
:101F0000052828D12068006820F0160021680860A4
:101F10002068406920F0800021684861206C08B981
:101F2000A06C28B12068006820F0080021680860D3
:101F300094F85C103F208840A860012084F83500A8
:101F400000BF002084F8340000BF206D10B120468F
:101F5000216D8847F8BD2068006800F4802080B1BA
:101F60002068006800F4002028B9606C10B1204699
:101F7000616C88471DE0E06BD8B12046E16B884773
:101F800017E02068006800F4807068B92068006875
:101F900020F0100021680860012084F8350000BF9F
:101FA000002084F8340000BFE06B10B12046E16BE4
:101FB0008847606D38B3606D00F00100F0B1052016
:101FC00084F835002068006820F00100216808606E
:101FD00000BF0098401C0090B84200D905E020687E
:101FE000006800F001000028F3D100BF012084F850
:101FF000350000BF002084F8340000BFE06C10B151
:102000002046E16C884700BFA4E7000030000020B4
:102010002DE9F0410446002500F0C6F9074614B941
:102020000120BDE8F081606A00B100BF022084F8A1
:10203000350000BF002084F8340000BF206800682D
:1020400020F00100216808600AE000F0ADF9C01B33
:10205000052805D920206065032084F83500E0E7D5
:102060002068006800F001000028EED120680568B3
:1020700021480540D4E901010843E168084321698A
:10208000084361690843A1690843E1690843216A7B
:1020900008430543606A042803D1D4E90B010843CF
:1020A0000543206805602068456925F00705606ADA
:1020B0000543606A04280DD1A06A0543E06A48B16F
:1020C0002046FFF735F928B140206065012084F8EB
:1020D0003500A6E7206845612046FFF70FF9064660
:1020E00094F85C103F208840B060002060650120BB
:1020F00084F83500002094E73F8010F02DE9F04788
:1021000004460D4616461F464FF00008D4F8589076
:1021100000BF94F83400012802D10220BDE8F08706
:10212000012084F8340000BF94F83500012825D13F
:10213000022084F83500002060653B46324629467F
:102140002046FFF74AF994F85C103F208840C9F810
:1021500008002068006840F0160021680860206CC4
:1021600028B12068006840F00800216808602068F5
:10217000006840F001002168086006E000BF002010
:1021800084F8340000BF4FF002084046C6E7000064
:10219000F8B502460B460025002400200021DFE0B0
:1021A000012606FA01F51E6806EA0504AC4274D160
:1021B0001E7906F00306012E04D01E7906F00306F0
:1021C000022E13D190684F000326BE40B0434F004B
:1021D000DE68BE4030439060506801268E40B043B8
:1021E0001E79C6F300168E40304350601E7906F00B
:1021F0000306032E09D0D0684F000326BE40B0432B
:102200004F009E68BE403043D0601E7906F0030642
:10221000022E13D1CF0802F1200656F827004E07F0
:10222000F70E0F26BE40B0434F07FF0E1E69BE409B
:102230003043CF0802F1200646F8270010684F000F
:102240000326BE40B0431E7906F003064F00BE4091
:10225000304310605E6806F44036002E7FD000BF29
:1022600000260096404E366846F480463E4F3E605B
:102270003E46366806F48046009600BF00BF3B4EDF
:102280008F0856F827008E07370F0F26BE40B04341
:10229000374EB24202D100262EE060E0354EB24207
:1022A00001D1012628E0344EB24201D1022623E0BA
:1022B000324EB24201D103261EE0314EB24201D16C
:1022C000042619E02F4EB24201D1052614E02E4E0D
:1022D000B24201D106260FE02C4EB24201D10726B0
:1022E0000AE02B4EB24201D1082605E0294EB24247
:1022F00001D1092600E00A268F073F0FBE40304378
:102300001A4E8F0846F82700234E3068A0435E68B7
:1023100006F4803606B120431F4E3060361D30680B
:10232000A0435E6806F4003606B120431A4E361DFF
:102330003060361D3068A0435E6806F4801606B132
:102340002043154E08363060361D3068A0435E6865
:1023500006F4001606B120430F4E0C363060491CBF
:102360001029FFF41DAFF8BD443802400838014081
:10237000000002400004024000080240000C02403D
:10238000001002400014024000180240001C0240ED
:102390000020024000240240003C01400AB181615B
:1023A00001E00B048361704701480068704700003A
:1023B00024000020034800680349097808440149C3
:1023C00008607047240000202C00002010B50D4844
:1023D000006840F400700B4908600846006840F44B
:1023E000806008600846006840F480700860032040
:1023F00000F0C8F80F2000F007F800F04BF80020BC
:1024000010BD0000003C024070B588B004460025B5
:10241000002600222146362000F076F8362000F013
:1024200063F800BF002001901648006840F01000DB
:10243000144908600846006800F01000019000BFD1
:1024400000BF02A903A800F073F900F099F9450054
:102450000D48B5FBF0F0461E0C480D49086040F2EF
:10246000E7310B48C160466000210161816000F0E6
:10247000F7FC20B9064800F027FD08B070BD012028
:10248000FBE700004038024040420F0000100040CF
:102490001007002008B500BF002000901148006818
:1024A00040F480400F4908600846006800F480400E
:1024B000009000BF00BF00BF00200090081F006810
:1024C00040F08050091F08600846006800F0805006
:1024D000009000BF00BF00220F21901E00F014F8F2
:1024E00008BD00004438024001460846002809DBC8
:1024F00000F01F0301229A4043099B0003F1E023EF
:10250000C3F8002100BF70472DE9F05F80460D46FB
:102510001646002701F056FE074639462A4633463E
:1025200001F00700C0F1070ABAF1040F02D94FF019
:10253000040A01E0C0F1070AD14600F1040ABAF129
:10254000070F02D24FF0000A01E0A0F1030AD446BF
:102550004FF0010A0AFA09FAAAF1010A0AEA020A84
:102560000AFA0CFA4FF0010B0BFA0CFBABF1010B62
:102570000BEA030B4AEA0B042146404601F02AFE0F
:10258000BDE8F09F00BF00F00702064B19684FF648
:10259000FF031940044B0B4343EA0221014B19602E
:1025A00000BF70470CED00E00000FA0570B504466E
:1025B0000D460CB9012070BD5848006800F00F00AE
:1025C000A84209D255490D700846006800F00F0076
:1025D000A84201D00120EEE7207800F00200022896
:1025E0001DD1207800F00400042805D14C48006873
:1025F00040F4E0504A490860207800F008000828BC
:1026000005D14748006840F46040454908604448A7
:10261000006820F0F000A168084341490860207874
:1026200000F00100A8B36068012807D13C480838D1
:102630000068C0F34040B8B90120BCE760680228D8
:1026400002D06068032807D1354808380068C0F315
:10265000406048B90120AEE7314808380068C0F34F
:10266000400008B90120A6E72D48006820F00300CB
:10267000616808432A490860FFF796FE064609E0AC
:10268000FFF792FE801B41F28831884202D9032075
:1026900091E707E02248006800F00C006168B0EBA9
:1026A000810FEDD11D48006800F00F00A84209D944
:1026B0001A490D700846006800F00F00A84201D0CA
:1026C000012078E7207800F00400042807D114489E
:1026D000006820F4E050E168084311490860207860
:1026E00000F00800082808D10D48006820F4604078
:1026F000216940EAC1000A49086000F061F8084910
:102700000968C1F30311074A515CC84006490860D3
:1027100006480068FFF778FE00204CE7003C0240C6
:1027200008380240785B00083000002028000020B4
:102730000F2202600D4A126802F0030242600B4A47
:10274000126802F0F0028260084A126802F4E05255
:10275000C260064A126802F46042D2080261044A6A
:10276000126802F00F020A60704700000838024049
:10277000003C024001480068704700003000002023
:1027800000B5FFF7F7FF04490968C1F38221034A46
:10279000515CC84000BD000008380240885B00085A
:1027A00000B5FFF7E7FF04490968C1F34231034A66
:1027B000515CC84000BD000008380240885B00083A
:1027C0002DE9F047002400250026A1462548006891
:1027D00000F00C0020B1042805D008283AD105E00B
:1027E000DFF8849039E0DFF8849036E01D48001F60
:1027F000006800F03F041B48001F006800F48000E0
:1028000078B11A481749091F0968C1F38811A0FB5C
:1028100001700146224600233846FDF745FD054676
:102820000EE011480F49091F0968C1F38811A0FB88
:1028300001700146224600233846FDF735FD054666
:102840000848001F0068C0F30140401C4600B5FB6B
:10285000F6F902E0DFF8109000BF00BF4846BDE87F
:10286000F0870000083802400024F400001BB70085
:10287000F8B504460CB90120F8BD207800F001003D
:10288000002874D0F948006800F00C0004280DD02E
:10289000F648006800F00C00082813D1F348001F28
:1028A000006800F48000B0F5800F0BD1EF480838C5
:1028B0000068C0F34040002859D06068002856D115
:1028C0000120D9E700BF6068B0F5803F08D1E74834
:1028D0000838006840F48030E449083908601EE098
:1028E0006068B0F5A02F0DD1E0480838006840F4CA
:1028F0008020DE49083908600846006840F48030CE
:1029000008600CE0D9480838006820F48030D749C6
:10291000083908600846006820F48020086000BF7D
:10292000606890B1FFF740FD054606E0FFF73CFD0B
:10293000401B642801D903209EE7CC480838006872
:10294000C0F340400028F1D011E0FFF72DFD05460F
:1029500006E0FFF729FD401B642801D903208BE71F
:10296000C24808380068C0F340400028F1D1207800
:1029700000F0020002285FD1BC48006800F00C00A3
:1029800058B1BA48006800F00C0008281CD1B748BC
:10299000001F006800F48000B0B9B448083800682F
:1029A000C0F3400020B1E068012801D0012063E7B6
:1029B000AE480838006820F0F800216940EAC100FC
:1029C000AA490839086037E0E06800B30120A84947
:1029D0000860FFF7E9FC054606E0FFF7E5FC401B51
:1029E000022801D9032047E7A04808380068C0F34F
:1029F00040000028F1D09D480838006820F0F80019
:102A0000216940EAC10099490839086014E00020B2
:102A100097490860FFF7C8FC054606E0FFF7C4FCCD
:102A2000401B022801D9032026E790480838006897
:102A3000C0F340000028F1D1207800F008000828F9
:102A40002CD16069A8B101208A490860FFF7ACFC6D
:102A5000054606E0FFF7A8FC401B022801D9032029
:102A60000AE782486C300068C0F340000028F1D0CB
:102A700014E000207F490860FFF796FC054606E059
:102A8000FFF792FC401B022801D90320F4E67748A7
:102A90006C300068C0F340000028F1D1207800F0CD
:102AA0000400042870D1002770483830006800F016
:102AB000805090B900BF002000906C48383000680A
:102AC00040F080506949383108600846006800F0DD
:102AD0008050009000BF00BF01276748006800F4E5
:102AE0008070B0B96448006840F480706249086042
:102AF000FFF75AFC054606E0FFF756FC401B02288C
:102B000001D90320B8E65C48006800F48070002812
:102B1000F2D000BFA068012808D15448683000688E
:102B200040F001005149683108601DE0A0680528A7
:102B30000DD14E486830006840F004004B496831C0
:102B400008600846006840F0010008600CE0474853
:102B50006830006820F00100444968310860084688
:102B6000006820F00400086000BFA068A8B1FFF76B
:102B70001BFC054609E0FFF717FC401B41F28831BA
:102B8000884202D9032077E626E03848683000689A
:102B9000C0F340000028EED013E0FFF705FC054627
:102BA00008E0FFF701FC401B41F28831884201D95F
:102BB000032061E62D4868300068C0F3400000281B
:102BC000EFD1012F07D129483830006820F080501C
:102BD00026493831086000BFA069002845D0234845
:102BE000006800F00C0008285DD0A069022845D1DB
:102BF00000201F490866FFF7D7FB054606E0FFF7F0
:102C0000D3FB401B022801D9032035E617480838BA
:102C10000068C0F340600028F1D1D4E907010843FF
:102C2000616A40EA81110122A06AC2EB500041EAC8
:102C300000412C20005D41EA00600C49091F08603A
:102C400001200B490866FFF7AFFB054606E0FFF7DA
:102C5000ABFB401B022801D903200DE603480838CE
:102C60000068C0F340600028F1D049E00838024015
:102C700000004742800E474200700040002021497A
:102C80000866FFF791FB054606E0FFF78DFB401B4A
:102C9000022801D90320EFE51B480068C0F340601B
:102CA0000028F2D12CE0A069012800D1E4E5164803
:102CB000001D0668A069012820D006F48001E069A3
:102CC00081421BD106F03F01206A814216D147F6AE
:102CD000C0703040616AB0EB811F0FD106F4403103
:102CE0000122A06AC2EB5000B1EB004F06D106F002
:102CF00070612C20005DB1EB006F01D00120BBE5BD
:102D00000020B9E5000047420038024010B50446F3
:102D10000CB9012010BD606A38B96068B0F5827FD7
:102D200000D105E00021E16102E000212161616143
:102D30000021A16294F8510028B9002084F85000C5
:102D4000204600F047F8022084F85100206800680F
:102D500020F0400021680860A08800F4827021897A
:102D600001F404410843A18901F400610843217C76
:102D700001F002010843217D01F001010843218B8C
:102D800001F400710843217F01F03801084320213C
:102D9000095D01F080010843218D01F400510843D1
:102DA000216808600421A06901EA104094F8241009
:102DB00001F010010843216848602068C06920F4D0
:102DC00000602168C86100206065012084F851001E
:102DD00000209FE710B586B00446142101A8FDF736
:102DE000ADFA1B492068884230D100BF0020009016
:102DF0001848006840F480101649086008460068CA
:102E000000F48010009000BF00BF00BF00200090C1
:102E100010481438006840F020000E49143908604A
:102E20000846006800F02000009000BF00BF4FF48B
:102E30006070019002200290002003900320049013
:102E40000520059001A90448FFF7A2F906B010BDBE
:102E5000005001404438024000140240704770475F
:102E600010B504460CB9012010BD94F83D0028B9F6
:102E7000002084F83C00204600F025F8022084F869
:102E80003D00211D206800F065FE012084F8460009
:102E900000BF84F83E0001213F200155402001552C
:102EA0004120015500BF00BF012084F842004320AB
:102EB0000155442001554520015500BF012084F8EB
:102EC0003D000020D0E77047014691F83D00012801
:102ED00001D001207047022081F83D000868C068D9
:102EE00040F001000B68D8601A4B086898421BD06C
:102EF0000868B0F1804F17D0174B0868984213D07C
:102F0000164B086898420FD0154B086898420BD0B2
:102F1000144B0868984207D0134B0868984203D0B6
:102F2000124B086898420CD10868806800F00702CC
:102F3000062A0CD00868006840F001000B68186091
:102F400005E00868006840F001000B681860002088
:102F5000C0E70000000001400004004000080040FD
:102F6000000C0040000401400040014000180040F7
:102F7000704710B5044620680069C0F34000D8B11E
:102F80002068C068C0F34000B0B16FF00200216853
:102F90000861012020772068806900F0030018B1E3
:102FA0002046FFF7E5FF05E0204600F0ADF820469B
:102FB00000F0ABF80020207720680069C0F38000A3
:102FC000D8B12068C068C0F38000B0B16FF00400D1
:102FD00021680861022020772068806900F4407031
:102FE00018B12046FFF7C4FF05E0204600F08CF83A
:102FF000204600F08AF80020207720680069C0F39E
:10300000C000D8B12068C068C0F3C000B0B16FF094
:10301000080021680861042020772068C06900F05A
:10302000030018B12046FFF7A3FF05E0204600F09B
:103030006BF8204600F069F80020207720680069CE
:10304000C0F30010D8B12068C068C0F30010B0B160
:103050006FF0100021680861082020772068C0699F
:1030600000F4407018B12046FFF782FF05E02046CB
:1030700000F04AF8204600F048F800202077206849
:10308000006900F0010058B12068C06800F001003C
:1030900030B16FF0010021680861204600F036F879
:1030A00020680069C0F3C01058B12068C068C0F340
:1030B000C01030B16FF08000216808612046FFF732
:1030C000CDFE20680069C0F3801058B12068C06848
:1030D000C0F3801030B16FF04000216808612046D5
:1030E00000F020F820680069C0F3401058B1206853
:1030F000C068C0F3401030B16FF020002168086153
:103100002046FFF7ACFE10BD7047704710B504466F
:1031100003492068884201D1FFF74CF910BD000037
:103120000010004070477047704710B504460CB956
:10313000012010BDA06900B100E000BF94F83D007F
:1031400028B9002084F83C00204600F027F824200D
:1031500084F83D002068C06820F400502168C860F1
:10316000204600F03DFE2068006920F49040216870
:1031700008612068406920F02A00216848612068C1
:10318000C06840F400502168C860002020642020FE
:1031900084F83D0084F83E000020CAE710B586B0F0
:1031A0000446142101A8FDF7C9F82B49206888427C
:1031B0004FD100BF002000902848006840F0100068
:1031C000264908600846006800F01000009000BF23
:1031D00000BF00BF0020009020481438006840F075
:1031E00002001E49143908600846006800F0020019
:1031F000009000BF00BFC02001900220029000207C
:103200000390032004900720059001A91448FEF7BD
:10321000BFFF1448144908604FF000604860002167
:1032200011488160C1604FF48061016100214161FA
:1032300081614FF48071C161002101624162FEF73A
:10324000E7FE08B1FEF7E0F800BF0748A06384631B
:1032500000BF06B010BD000000100140443802401D
:103260000004024040640240B006002070B50446ED
:103270000D46164694F83E00202816D105B10EB929
:10328000012070BD00BF94F83C00012801D102204C
:10329000F7E7012084F83C0000BF0020206332469D
:1032A0002946204600F0B2FEEBE70220E9E70000E5
:1032B0003E4909783D4A527841EA0221C1F30A01A8
:1032C0003B4A118039494978C910384A927841EA15
:1032D0004211C1F30A01364A518034498978891173
:1032E000324AD27841EA8201304A127941EA822197
:1032F000C1F30A012E4A91802C49097949102B4AC1
:10330000527941EAC211C1F30A01294AD180274901
:10331000497909118908117224494979C1F30111C8
:10332000517222498979214AD27941EA022109B2AE
:103330001F4A51811D49097A1C4A527A41EA0221E9
:103340000AB21B498A811949897A184AD27A41EA14
:1033500002210AB21649CA8114490A7B14490A7427
:1033600012494A7B12494A741049897B0F4AD27B21
:1033700041EA02210E4A518211460988A1F5806175
:1033800009B2118011464988A1F5806109B25180C6
:1033900011468988A1F5806109B291801146C988DA
:1033A000A1F5806109B2D18070470000A4450020DA
:1033B00090450020704700BFFEE710B52DED028B51
:1033C0000446B0EE408AF0EE608A84ED008AC4EDD7
:1033D000018A94ED000AD4ED010A30EE600A84ED12
:1033E000020A94ED020AD4ED030A30EE600AD4ED2D
:1033F000050A20EE200A84ED080A94ED060AD4EDB1
:10340000020A20EE200A84ED090A94ED020AD4EDA6
:10341000030AB0EE001A01EE600AD4ED040A30EEA1
:10342000200AD4ED070A20EE200A84ED0A0AD4ED22
:103430000D0AF8EE600AB0EE600A04F1240000F014
:10344000ECFE94ED080AD4ED090A30EE200AD4ED22
:103450000A0A30EE200AD4ED0B0A30EE200A84ED81
:103460000B0AD4ED0C0AF8EE600AB0EE600A04F123
:103470002C0000F0D2FE94ED030A84ED040A94EDD2
:10348000020A84ED030A94ED0B0ABDEC028B10BD19
:103490000FB40099A1F201209DF81D109DF81C2089
:1034A00041EA0221104A02EB401211809DF81F20D0
:1034B0009DF81E1042EA012109B20B4A02EB4012AC
:1034C00051809DF821209DF8201042EA012109B287
:1034D000054A02EB401291809DF82210024A02EB4D
:1034E0004012917104B07047484400200FB4009915
:1034F000A1F20520384951F820100988364A52F8BF
:10350000202011829DF81D109DF81C2041EA022107
:10351000314A52F8202011809DF81F209DF81E107E
:1035200042EA012109B22C4A52F8202051809DF82C
:1035300021209DF8201042EA012109B2264A52F8C2
:10354000202091809DF82210234A52F8202091716A
:10355000214951F8201009881F4A52F82020128A68
:10356000891A1E4A914209DA1B4951F82010098B29
:10357000491C09B2184A52F820201183164951F803
:103580002010098A144A52F820201288891A134AF6
:10359000914209DA104951F82010098B491E09B2ED
:1035A0000D4A52F8202011830B4951F82010098848
:1035B000094A52F82020128B4FF4005313FB0211DA
:1035C00000EE101AB8EEC00A034951F8201081ED40
:1035D000050A04B0704700009C0000209CE6FFFF35
:1035E00010B50E480E4908600720486000210C48BD
:1035F0008160C1604FF400310161C9004161002167
:103600000176012141768176C176002101774177EB
:10361000FEF735FA08B1FDF7F7FE10BD0064004073
:10362000C405002010B50E480E4908600720486008
:1036300000210C488160C1604FF400310161C90074
:10364000416100210176012141768176C176002118
:1036500001774177FEF713FA08B1FDF7D5FE10BDEB
:1036600000680040EC05002008B500BF0020009075
:103670000A48006840F4800008490860084600686D
:1036800000F48000009000BF00BF002205213A2016
:10369000FEF73AFF3A20FEF727FF08BD3038024018
:1036A00000B5A9B02B4B0FCBCDE92723CDE92501E0
:1036B000002125A800F020FE27490860254B103383
:1036C0000FCBCDE92323CDE92101002121A800F072
:1036D00013FE224908601F4B20330FCBCDE91F2377
:1036E000CDE91D0100211DA800F006FE1C4908605F
:1036F0001C221849303116A8FCF707FE002116A835
:1037000000F00EFE174908601C2212494C310FA828
:10371000FCF7FBFD00210FA800F002FE1249086033
:103720001C220C49683108A8FCF7EFFD002108A80D
:1037300000F0F6FD0D4908601C220649843101A8FD
:10374000FCF7E3FD002101A800F0EAFD084908604C
:1037500029B000BDD05A0008140000201800002035
:103760000000002004000020080000200C000020C1
:103770001000002000B587B0142102A8FCF7DEFD80
:1037800000BF002001902D48006840F001002B4947
:1037900008600846006800F00100019000BF00BF0B
:1037A00000BF002001900846006840F00200086059
:1037B0000846006800F00200019000BF00BF00BF93
:1037C000002001900846006840F0080008600846A4
:1037D000006800F00800019000BF00BF00BF00209B
:1037E00001900846006840F08000086008460068C4
:1037F00000F08000019000BF00BF00BF00200190DA
:103800000846006840F0200008600846006800F0A4
:103810002000019000BF00BF012240210848FEF7B0
:10382000BDFD4020029001200390049000200590EF
:1038300002A90348FEF7ACFC07B000BD30380240D7
:103840000014024010B50E480E4908604FF4827013
:10385000486000210B488160C160016141614FF403
:10386000007181613021C161002101624162816288
:103870000A21C162FFF74AFA08B1FDF7C5FD10BD84
:10388000005001401406002010B50A480A4908609B
:103890000A484860002108488160C16001610C212C
:1038A000416100218161C161FFF73FFC08B1FDF773
:1038B000ABFD10BD001001406C060020A086010089
:1038C0000FB5B7EE002AF0EE421A30EE602A32EE63
:1038D000012ADFED282A22EE222A8DED002AB1EE00
:1038E000402A32EE602A32EE012ADFED222A22EE51
:1038F000222A8DED012AB1EE402A32EE202A32EE44
:10390000012ADFED1C2A22EE222A8DED022A30EE5A
:10391000202A32EE012ADFED172A22EE222A8DED2F
:10392000032A9DED002A22EE212ABDEEC22A12EEC4
:10393000101A09B201809DED012A22EE212ABDEE66
:10394000C22A12EE101A09B241809DED022A22EE1F
:10395000212ABDEEC22A12EE101A09B281809DED15
:10396000032A22EE212ABDEEC22A12EE101A09B253
:10397000C1800FBD9A99D93F00BFFEE700BFFEE7A7
:1039800010B52DED028B0446B0EE408AF0EE608A51
:1039900084ED008AC4ED018A94ED000AD4ED010A99
:1039A00030EE600A84ED020A94ED020AD4ED030AB7
:1039B00030EE600A84ED040A94ED050AD4ED020AA3
:1039C00020EE200A84ED080A94ED090AD4ED060AD7
:1039D00094ED021A00EE810A84ED090A94ED020AC0
:1039E000D4ED030A30EE600AD4ED070A20EE200A77
:1039F00084ED0A0AD4ED0E0AB0EE600A04F1240048
:103A000000F00BFC94ED080AD4ED090A30EE200A10
:103A1000D4ED0A0A30EE200A84ED0B0AD4ED0C0A2C
:103A2000B0EE600A04F12C0000F0F7FB94ED020AFE
:103A300084ED030A94ED0B0ABDEC028B10BD00BFB0
:103A4000052000F048FCFBE710B500BF502080F3D4
:103A50001188BFF34F8FBFF36F8F00BF01F062FE7D
:103A600018B14FF080500449086000BF002080F377
:103A7000118800BF10BD000004ED00E000B593B058
:103A8000302107A8FCF75AFC142102A8FCF756FCC9
:103A900000BF002001902448006840F08050224977
:103AA00008600846006800F08050019000BF00BF29
:103AB00000BF002001901D48006840F440401B49B1
:103AC00008600846006800F44040019000BF00BF55
:103AD000012007900004089002200D9041050E91EE
:103AE00006210F91A8211091022111910421129118
:103AF00007A8FEF7BDFE08B1FDF786FC0F20029077
:103B000002200390002004904FF4A05005904FF441
:103B100080500690052102A8FEF748FD08B1FDF788
:103B200073FC13B000BD000040380240007000403C
:103B30000348006840F470000149086070470000C5
:103B400088ED00E010B50248FFF713FA10BD000041
:103B50001007002010B50268294B98420ED0B0F132
:103B6000804F0BD0274B984208D0274B984205D066
:103B7000264B984202D0264B984203D122F0700285
:103B80004B681A431E4B984220D0B0F1804F1DD095
:103B90001C4B98421AD01C4B984217D01B4B984292
:103BA00014D01B4B984211D01A4B98420ED01A4B8E
:103BB00098420BD0194B984208D0194B984205D027
:103BC000184B984202D0184B984203D122F440720D
:103BD000CB681A4322F080034C6943EA0402026076
:103BE0008B68C3620B688362054B984202D0084B16
:103BF000984201D10B6903630123436110BD0000AA
:103C0000000001400004004000080040000C00409B
:103C100000040140004001400044014000480140D0
:103C200000180040001C00400020004070B506460F
:103C30000025B46B20684069C0F3C01594F83D00BE
:103C4000212805D125B10020E084204600F0B4F8F9
:103C500020684069C0F3801594F83E00222805D101
:103C600025B10020E085204600F070F8206C40F07F
:103C7000100020642046FFF757FA70BD70B5054666
:103C8000AC6B2868006800F48070002842D1E085A1
:103C900000BF00BF21680C3151E8001F21F4807083
:103CA00021680C3141E80002002AF3D100BF00BFB7
:103CB00000BF2168143151E8001F21F00100216884
:103CC000143141E80002002AF3D100BF00BF00BF59
:103CD0002168143151E8001F21F04000216814319F
:103CE00041E80002002AF3D100BF202084F83E0002
:103CF000206B01280ED100BF00BF21680C3151E8B4
:103D0000001F21F0100021680C3141E80002002A58
:103D1000F3D100BF206B012804D1A18D2046FFF70D
:103D200002FA02E02046FFF7C3FA70BD70B50546FF
:103D3000AC6B206B012805D1A08D41082046FFF710
:103D4000F2F902E02046FFF735FB70BD00BF00BF6F
:103D500002680C3252E8002F22F4907102680C3293
:103D600042E80013002BF3D100BF00BF00BF026880
:103D7000143252E8002F22F001010268143242E8A6
:103D80000013002BF3D100BF016B01290ED100BF3E
:103D900000BF02680C3252E8002F22F010010268C6
:103DA0000C3242E80013002BF3D100BF202180F831
:103DB0003E1000210163704700BF00BF02680C3253
:103DC00052E8002F22F0C00102680C3242E80013D2
:103DD000002BF3D100BF202180F83D107047000078
:103DE0002DE9F84F04462068006920F44050E1684E
:103DF0000843216808612169A06808436169084394
:103E0000E169084300902068C06849F20C6188436A
:103E1000009908432168C8602068406920F4407018
:103E2000A16908432168486176492068884203D027
:103E300075492068884203D1FEF7B2FC814602E052
:103E4000FEF79EFC8146E069B0F5004F6CD1022080
:103E50006168A0FB015003461920A9FB00700146D0
:103E60002A463846FCF720FA6421B0FBF1F04FEA0D
:103E7000001A02206168A0FB01510B461920A9FB22
:103E800000712A463846FCF70FFA83460220616823
:103E9000A0FB015003461920A9FB00712A463846B1
:103EA000FCF702FA6421B0FBF1F000EBC00101EB7A
:103EB0000010ABEB8000322101EBC0006421B0FBAD
:103EC000F1F000F0F8000AEB400A02206168A0FB64
:103ED000015003461920A9FB007001462A463846C6
:103EE000FCF7E2F9834602206168A0FB015003461B
:103EF0001920A9FB00712A463846FCF7D5F9642140
:103F0000B0FBF1F000EBC00101EB0010ABEB800067
:103F1000322101EBC0006421B0FBF1F000F007009A
:103F20005044216888606AE004206168A0FB015069
:103F300003461920A9FB007001462A463846FCF7C3
:103F4000B3F9824604206168A0FB015003461920A2
:103F5000A9FB007001462A463846FCF7A5F9642102
:103F6000B0FBF1F000EBC00101EB0010AAEB800008
:103F7000322101EB00106421B0FBF1F000F0F00AF7
:103F800004206168A0FB017003461920A9FB0051C1
:103F90003A462846FCF788F96421B0FBF1F00AEBB9
:103FA000001A04206168A0FB01510B461920A9FBEF
:103FB00000712A463846FCF777F983460420616889
:103FC000A0FB015003461920A9FB007001462A46B8
:103FD0003846FCF769F96421B0FBF1F000EBC00151
:103FE00001EB0010ABEB8000322101EB00106421EB
:103FF000B0FBF1F000F00F00504421688860BDE88C
:10400000F88F0000001001400014014077B581B026
:10401000044615460298A062A5850020206422204F
:1040200084F83E002948A16BC8632948A16B086445
:104030002848A16BC8640020A16B086502AE3268F5
:104040002368191D2B46A06BFEF758F800BF00200F
:10405000009020680068009020684068009000BFD1
:1040600000BF00BF002084F83C0000BF00BF00BFBD
:1040700021680C3151E8001F41F4807021680C3137
:1040800041E80002002AF3D100BF00BF00BF216851
:10409000143151E8001F41F001002168143141E85A
:1040A0000002002AF3D100BF00BF00BF2168143115
:1040B00051E8001F41F040002168143141E800023E
:1040C000002AF3D100BF002004B070BD7D3C000881
:1040D0002D3D00082D3C00083148D0ED000A9FED31
:1040E000311A9FED310A10EEC10A304880ED000A06
:1040F0002B4890ED010ADFED2B0A20EE200ADFEDC0
:104100002C0A20EE200A294880ED010A294890ED6A
:10411000000ADFED240A20EE200A244880ED050A7B
:10412000244890ED010ADFED1F0A20EE200A1F4807
:1041300080ED060A90ED000AD0ED020A30EE600A2A
:10414000DFED1D0AB4EEE00AF1EE10FA03D2C0680A
:10415000401C1649C860154890ED020AD0ED000ACF
:1041600030EE600ADFED140AB4EEE00AF1EE10FA68
:1041700003D2C068401E0D49C8600C4890ED000A8B
:10418000D0ED030AF8EEE00A9FED0C1A00EE810A6A
:1041900080ED040A90ED000A80ED020A70470000ED
:1041A000BC000020E12E6542000034437045002031
:1041B0008805B641C4000020000096C30000B44347
:1041C00000BFFEE702480068C0F30220704700000D
:1041D0000CED00E010B5002804DB0A07130E054AB9
:1041E000135406E00A07140E034A00F00F031B1FC6
:1041F000D45410BD00E400E018ED00E002E008C86F
:10420000121F08C1002AFAD170477047002001E050
:1042100001C1121F002AFBD17047D0ED000AF4EE55
:10422000C00AF1EE10FA01DD80ED000AD0ED000ABF
:10423000B1EE401AF4EEC10AF1EE10FA03D2F1EE3B
:10424000400AC0ED000A7047064890ED040A06488F
:1042500080ED010A034890ED010A044880ED050A4B
:10426000704700007045002030460020484600207E
:10427000FEF7ACF8FFF702FCFFF77CFAFFF7B0F9A6
:10428000FFF7F2F9FFF7DEFAFFF7FEFAFFF7CAF9D8
:1042900001210948FCF764FB02210848FCF760FB98
:1042A000122207490748FEF7E1FFFFF7F9F900F08E
:1042B0001EF800BFFEE70000C4050020EC0500204A
:1042C000A44500206C06002001460020842901D06E
:1042D000CA1C1044704770B5044625460DB12946E6
:1042E00000E00121084600F065FD002070BD10B51A
:1042F00000F0BCFD002010BDF8B504460D46A068D6
:1043000040B1E06830B10020009094E80F0000F068
:1043100034FFF8BD0022D4E9000100F001FFF8E706
:104320007FB504460D46606998B1A06988B1B4F9BB
:104330000800FFF7C9FF0646D4E90510CDE9006182
:1043400002902B462269D4E9001001F07DF9039018
:1043500013E0B4F90800FFF7B7FF064603A8CDE95C
:104360000060238A9AB22B46D4E9001001F03AF992
:10437000012802D0002004B070BD0398FBE70000C4
:104380002DE9F04105460E461C4807681C480068A8
:10439000001D00F0CFFB50B91948006890F82C10B0
:1043A0000120884017490968814316480160681C4C
:1043B00038B936B112480168091D134800F004FCF1
:1043C0001AE07C190E4800684460BC4207D20C48D1
:1043D0000168091D0D48006800F0DCFB0CE008488E
:1043E0000168091D0A48006800F0D4FB094800680C
:1043F000844201D207480460BDE8F08148000020F3
:10440000340000204C000020340800203C00002034
:10441000380000206400002010B5044600F0E0FBE6
:1044200023480068401C224908602248006840B9BF
:10443000204804600846006801280DD100F0A6F964
:104440000AE01D48006838B91A480068C06AE16A85
:10445000884201D81748046018480068401C174972
:10446000086094F82C100120884015490968084319
:1044700013490860E16A01EB8101124A02EB8100F5
:10448000211D00F0A1FB00F0D5FB0B48006868B1CE
:1044900008480068C06AE16A884207D24FF080503D
:1044A00009490860BFF34F8FBFF36F8F10BD000045
:1044B0004400002034000020500000206000002054
:1044C0004C0000205807002004ED00E010B516E075
:1044D00000F086FB0C48C068C468201D00F02AFB71
:1044E0000A480068401E0949086009480068401EE3
:1044F0000749086000F09EFB204600F05FF8044882
:1045000000680028E4D110BD2008002044000020ED
:104510004000002070B504460D46206C70B1216C3F
:10452000E0680144E160D4E90210884201D32168C7
:10453000E1602846226CE168FBF7E7FE70BD2DE9DB
:10454000F04104460F4615464FF00008A66B206C5C
:1045500048B9206800282CD1A06801F087F980466E
:104560000020A06025E07DB93946226C6068FBF729
:10457000CCFE216C606808446060D4E90101884287
:1045800017D32068606014E03946226CE068FBF7BE
:10459000BCFE216CE068411AE1602168E068884255
:1045A00003D2216CA068411AE160022D01D106B14D
:1045B000761E701CA0634046BDE8F08110B504462D
:1045C00094F8510030B9206B00F052FB204600F007
:1045D0004FFB1AE094F85100012803D1204600F067
:1045E00047FB12E094F85100022801D1012000E0BD
:1045F000002050B900BF502080F31188BFF34F8FC7
:10460000BFF36F8F00BF00BFFEE710BD30B54FF4A2
:104610007053174800F007042CB1C01D20F00700AC
:10462000134C041B1B1B0246124C22600024114D2C
:104630006C60D018083820F007000F4C2060002470
:104640000D4D2D686C600C4D2D682C601146441A80
:104650004C60094C24680C60084D4C682C60084D77
:104660004C682C604FF00044064D2C6030BD0000BB
:104670004808002070000020780000208000002002
:104680007C0000208C00002000BFFFF71FFF0648C1
:1046900000680128F9D94FF0805004490860BFF341
:1046A0004F8FBFF36F8FF0E75807002004ED00E055
:1046B0002DE9F04106460D4617469846069C0DB971
:1046C000246000E02760E66325640121204600F0B5
:1046D000C5FDBDE8F0812DE9FF5F81460E4692469B
:1046E000DDE90E7B109CAAF10100216B01EB800833
:1046F00028F0070808F0070008B9012000E00020B2
:1047000050B900BF502080F31188BFF34F8FBFF323
:104710006F8F00BF00BFFEE786B1002507E0715D27
:1047200004F134004155705D00B902E06D1C102D9C
:10473000F5D300BF00214320015502E0002084F89A
:104740003400072F00D30627E76267640020A064C7
:10475000201D00F01CFA04F1180000F018FA246182
:10476000C7F10700A06164620020E06484F8500093
:1047700049464046039A00F09FF92060BBF1000FC4
:1047800001D0CBF80040BDE8FF9F000010B5002429
:1047900007E004EB84010F4A02EB810000F0EAF924
:1047A000641C072CF5D30C4800F0E4F90B4800F02A
:1047B000E1F90B4800F0DEF90A4800F0DBF90A489D
:1047C00000F0D8F90448094908600448084908601D
:1047D00010BD000058070020E4070020F807002063
:1047E0000C08002020080020340800203800002099
:1047F0003C00002010B50146164800E00068036840
:104800008B42FBD30246436813448B4204D1436876
:104810004C682344436001460A464B6813440468CD
:10482000A34211D10C4C03682468A34208D04B6802
:104830000468646823444B6003681B680B6005E0F0
:10484000054B1B680B6001E003680B60884200D0D9
:10485000016010BD700000207800002070B5054692
:1048600000F0BEF9A86B08B9012400E0002400F0B4
:10487000E1F9204670BD00000A490968096809B9D4
:10488000012100E0002121B14FF0FF31064A116003
:1048900006E004490968C968C868034A41681160AC
:1048A0007047000038000020640000200E480068B7
:1048B000401C08B9012000E0002050B900BF502082
:1048C00080F31188BFF34F8FBFF36F8F00BF00BF1E
:1048D000FEE700BF502080F31188BFF34F8FBFF376
:1048E0006F8F00BF00BFFEE79000002070B5044648
:1048F00000F076F994F9455010E0606A08B901209B
:1049000000E0002038B904F1240001F013F818B1D8
:1049100000F08AFA00E003E0681E45B2002DECDCEE
:1049200000BFFF2084F8450000F084F900F058F93A
:1049300094F9445010E0206908B9012000E00020FB
:1049400048B904F1100000F0F5FF08B100F06CFA6E
:10495000681E45B200E001E0002DECDC00BFFF2046
:1049600084F8440000F066F970BD00002DE9F041C4
:1049700004464FF0000800F0D1FA4948006808B931
:10498000FFF744FE474800682040002870D1D4B1AA
:10499000083404F00700B0B104F00700C0F10800CB
:1049A000044404F0070008B9012000E0002050B9D9
:1049B00000BF502080F31188BFF34F8FBFF36F8F7C
:1049C00000BF00BFFEE7002C52D037480068844289
:1049D0004ED8364E3046056801E02E462D68686890
:1049E000A04202D228680028F7D12D4800688542ED
:1049F0003ED0306800F10808286830606868001B05
:104A0000102819D92F1907F0070008B9012000E074
:104A1000002050B900BF502080F31188BFF34F8FA2
:104A2000BFF36F8F00BF00BFFEE76868001B7860B0
:104A30006C603846FFF7DEFE1B4968680968081A93
:104A4000194908600846006819490968884203D274
:104A500015480068164908601249686809680843E3
:104A600068600020286013480068401C11490860F5
:104A700000F0ACFF08F0070008B9012000E00020BA
:104A800050B900BF502080F31188BFF34F8FBFF3A0
:104A90006F8F00BF00BFFEE74046BDE8F081000019
:104AA000780000208C0000207C0000207000002096
:104AB0008000002084000020001F4FF080730360FE
:104AC000001F21F001030360001F054B0360143831
:104AD0000260001F6FF0020303602038704700007F
:104AE000AD480008F8B507460C4615461E464FF47B
:104AF00000700D49086000208860C86008200861C7
:104B0000380A0A4908704F70200A8870CC70280A49
:104B100008714D71300A8871CE716B460A460249A0
:104B20000348FCF789FCF8BD184600206802002005
:104B3000C405002001460A69D1E901309860D1E935
:104B4000010358605068884201D188685060002095
:104B500008611068401E106010687047034B0360C6
:104B6000034B0B608023136070470000700300202C
:104B7000C403002000F1080141604FF0FF31816063
:104B800000F10801C160016100210160704700214E
:104B90000161704710B502460B685C1C0CB91069C6
:104BA00007E002F1080000E04068446824689C4285
:104BB000FAD944684C604C68A160886041600A6121
:104BC0001468641C146010BD42684A6093688B606E
:104BD000936859609160086103685B1C03607047CB
:104BE00000BF502080F31188BFF34F8FBFF36F8F4A
:104BF00000BF0E480068401C0C4908600846006869
:104C0000012812D10A480068C0B208B9012000E0AA
:104C1000002050B900BF502080F31188BFF34F8FA0
:104C2000BFF36F8F00BF00BFFEE77047900000200A
:104C300004ED00E00D48006850B900BF502080F33B
:104C40001188BFF34F8FBFF36F8F00BF00BFFEE728
:104C500006480068401E054908600846006820B9FB
:104C6000002080F3118800BF00BF70479000002033
:104C700070B506463546002E44D0083D2C462249E4
:104C800060680968084008B1012000E0002050B9C0
:104C900000BF502080F31188BFF34F8FBFF36F8F99
:104CA00000BF00BFFEE7206808B9012000E0002037
:104CB00050B900BF502080F31188BFF34F8FBFF36E
:104CC0006F8F00BF00BFFEE70F49606809680840AA
:104CD000C0B12068B0B90C49606809688843606059
:104CE00000F01CF909496068096808440749086030
:104CF0002046FFF77FFD06480068401C0449086015
:104D000000F064FE70BD00008C0000207C000020DC
:104D10008800002000204FF0E021086188610648EB
:104D200000684FF47A71B0FBF1F0401E4FF0E021C3
:104D300048610720086170473000002070B5FBF71C
:104D40009DFA0446102C16D304F1E02090F8F0539D
:104D500015480078854201DB012000E0002050B9B1
:104D600000BF502080F31188BFF34F8FBFF36F8FC8
:104D700000BF00BFFEE70D48006800F4E0600C498A
:104D80000968884201D8012000E0002050B900BF26
:104D9000502080F31188BFF34F8FBFF36F8F00BF98
:104DA00000BFFEE770BD0000940000200CED00E0A5
:104DB0009800002070B504460025D4B11248006860
:104DC00008B9012000E0002050B900BF502080F356
:104DD0001188BFF34F8FBFF36F8F00BF00BFFEE797
:104DE00000F09CF800212046FFF7CAFA00F0EEFD23
:104DF00005463DB94FF0805004490860BFF34F8F1E
:104E0000BFF36F8F70BD00006C00002004ED00E068
:104E1000034909680160034909684160704700005F
:104E20005C00002048000020012001490860704714
:104E30005800002070B504460D4654B900BF5020FC
:104E400080F31188BFF34F8FBFF36F8F00BF00BF98
:104E5000FEE70548016818312046FFF79BFE012157
:104E60002846FFF78DFA70BD3400002010B586B0DB
:104E700000200590049003AA04A905A8FFF76EFE80
:104E80000022DDE904101346CDE9002102901CA1A7
:104E90001D48039A00F0D8FB1C49086008460068CA
:104EA00008B1012400E00024012C15D100BF5020DE
:104EB00080F31188BFF34F8FBFF36F8F00BF4FF0A8
:104EC000FF30134908600120124908600020124990
:104ED000086000F071F810E0601C08B1012000E0EB
:104EE000002050B900BF502080F31188BFF34F8FCE
:104EF000BFF36F8F00BF00BFFEE706B010BD00001C
:104F000049444C4500000000894600086800002024
:104F10006400002050000020480000200248006883
:104F2000401C0149086070476C0000201D48006863
:104F300018B101201C49086032E000201A490860BD
:104F40001A480068B0FA80F0C0F11F0101EB81003F
:104F5000174A52F8200008B1012000E0002050B9A3
:104F600000BF502080F31188BFF34F8FBFF36F8FC6
:104F700000BF00BFFEE701EB81020D4B03EB820097
:104F800042685268426000F108024368934202D1CD
:104F90004268526842604268D268064B1A6000BF9D
:104FA000704700006C000020580000204C000020DA
:104FB00058070020340000201CB5524800685249B0
:104FC000884201D0012000E0002050B900BF5020ED
:104FD00080F31188BFF34F8FBFF36F8F00BF00BF07
:104FE000FEE7484800684849491E884201D0012030
:104FF00000E0002050B900BF502080F31188BFF3BB
:105000004F8FBFF36F8F00BF00BFFEE73F490846D9
:1050100000780190FF200A46107008460078009042
:105020009DF8000000F0F0009DF80020904201D1B2
:10503000012000E0002050B900BF502080F311880B
:10504000BFF34F8FBFF36F8F00BF00BFFEE79DF828
:10505000000000F050002E4A107007202D4A10600A
:1050600009E02C480068401E2A4A10609DF80000A4
:105070004006000E00909DF8000000F0800080289F
:10508000EFD024480068C0F10700042801D10120B6
:1050900000E0002050B900BF502080F31188BFF31A
:1050A0004F8FBFF36F8F00BF00BFFEE71948006846
:1050B0000002184A10601046008800F4E06010609A
:1050C000124A019810700F482030006840F47000B8
:1050D0000C49203108600846006840F070400860C4
:1050E000FFF718FE00200C490860FBF78FF80B480B
:1050F000006840F0404009490860FBF773F8002061
:105100001CBD000000ED00E071C20F4100E400E0B2
:1051100094000020980000209000002034EF00E070
:105120002DE9F84305460E4617460DB1012000E073
:10513000002050B900BF502080F31188BFF34F8F7B
:10514000BFF36F8F00BF00BFFEE705FB06F808F155
:105150004800FFF70BFC044664B1A14609F1480979
:10516000002084F846003B464A46314628460094D3
:10517000FFF79EFA2046BDE8F8832DE9F843804604
:105180000E4617461D46DDF82090B8F1000F01D0FD
:10519000012000E0002050B900BF502080F31188AA
:1051A000BFF34F8FBFF36F8F00BF00BFFEE70DB19E
:1051B000012000E0002050B900BF502080F311888A
:1051C000BFF34F8FBFF36F8F00BF00BFFEE707B184
:1051D0000EB1012000E0002050B900BF502080F344
:1051E0001188BFF34F8FBFF36F8F00BF00BFFEE783
:1051F00007B90EB9012000E0002050B900BF5020CF
:1052000080F31188BFF34F8FBFF36F8F00BF00BFD4
:10521000FEE7482000900098482801D1012000E0D6
:10522000002050B900BF502080F31188BFF34F8F8A
:10523000BFF36F8F00BF00BFFEE700BF2C464CB12D
:10524000012084F846004B463A46314640460094D9
:10525000FFF72EFA2046BDE8F883000070B505463A
:105260000E462C4654B900BF502080F31188BFF37E
:105270004F8FBFF36F8F00BF00BFFEE7FFF7B0FC9B
:10528000D4E90F12206801FB0200A0600020A06397
:1052900020686060E06B401E226C216800FB0211F8
:1052A000E160FF2084F8440084F845009EB920693D
:1052B00008B9012000E00020A8B904F1100000F0B6
:1052C00039FB80B14FF0805009490860BFF34F8F20
:1052D000BFF36F8F07E004F11000FFF74BFC04F100
:1052E0002400FFF747FCFFF7A5FC012070BD00007C
:1052F00004ED00E02DE9F84F07468A4690461E4629
:105300003C4654B900BF502080F31188BFF34F8F43
:10531000BFF36F8F00BF00BFFEE7BAF1000F01D1EE
:10532000206C08B9012000E0002050B900BF5020D7
:1053300080F31188BFF34F8FBFF36F8F00BF00BFA3
:10534000FEE7022E02D1E06B012801D1012000E02E
:10535000002050B900BF502080F31188BFF34F8F59
:10536000BFF36F8F00BF00BFFEE7FFF7E7FC00BF92
:105370005021EFF3118081F31188BFF34F8FBFF3FA
:105380006F8F00BF0546A06BE16B884201D3022EF0
:1053900025D194F945B0A06B009032465146204685
:1053A000FFF7CDF80BF1010088B9606A08B9012058
:1053B00000E0002050B904F1240000F0BBFA28B14D
:1053C000B8F1000F02D00120C8F8000004E00BF192
:1053D000010040B284F845004FF0010901E04FF0B0
:1053E000000900BF85F3118800BF4846BDE8F88F6B
:1053F0002DE9F74183B005460E464FF000082C46D4
:1054000054B900BF502080F31188BFF34F8FBFF312
:105410006F8F00BF00BFFEE70EB9206C08B90120F6
:1054200000E0002050B900BF502080F31188BFF386
:105430004F8FBFF36F8F00BF00BFFEE700F062F930
:1054400008B9059808B9012000E0002050B900BF54
:10545000502080F31188BFF34F8FBFF36F8F00BFD1
:1054600000BFFEE700BFFFF7BBFBA76BF7B13146FC
:105470002046FFF74FF8781EA063206908B9012085
:1054800000E0002060B904F1100000F053FA38B1D8
:105490004FF080502F490860BFF34F8FBFF36F8FDD
:1054A000FFF7C8FB012006B0BDE8F081059818B9E8
:1054B000FFF7C0FB0020F6E7B8F1000F04D101A808
:1054C000FFF7A6FC4FF00108FFF7B4FBFFF726FD3E
:1054D000FFF786FB94F94400401C10B9002084F8C3
:1054E000440094F94500401C10B9002084F84500A0
:1054F000FFF7A0FB05A901A800F02EF8F0B920469F
:10550000FFF7ACF9A0B104F124000599FFF792FC74
:105510002046FFF7EBF900F059FA0028A3D14FF02D
:1055200080500C490860BFF34F8FBFF36F8F9AE72D
:105530002046FFF7DBF900F049FA94E72046FFF731
:10554000D5F900F043FA2046FFF788F900288AD001
:105550000020A8E704ED00E070B505460C4655B9FB
:1055600000BF502080F31188BFF34F8FBFF36F8FC0
:1055700000BF00BFFEE754B900BF502080F3118880
:10558000BFF34F8FBFF36F8F00BF00BFFEE7FFF782
:1055900027FB124802686868131A2068401C08B983
:1055A000002617E00E4928680968884204D0686818
:1055B000904201D801260DE02068984207D9206862
:1055C000C01A20602846FFF723FC002602E00020D6
:1055D00020600126FFF72EFB304670BD48000020FA
:1055E0005C0000202DE9FF4F85B0804689461746B4
:1055F000DDE912ABB800FFF7B9F9064656B1542001
:10560000FFF7B4F904460CB1266304E03046FFF717
:105610002FFB00E000248CB1002084F85100CDE97C
:1056200000ABCDE902403A4649464046089BFFF7A9
:1056300052F82046FEF7F0FE012501E04FF0FF355D
:10564000284609B0BDE8F08F2DE9F04F85B0074638
:10565000884691469A46DDE90EB6109C0EB10120AF
:1056600000E0002050B900BF502080F31188BFF344
:105670004F8FBFF36F8F00BF00BFFEE70CB101205B
:1056800000E0002050B900BF502080F31188BFF324
:105690004F8FBFF36F8F00BF00BFFEE75420039012
:1056A0000398542801D1012000E0002050B900BF28
:1056B000502080F31188BFF34F8FBFF36F8F00BF6F
:1056C00000BFFEE700BFB4B1AEB125462C462E6345
:1056D000022085F85100002004A953464A46CDE92E
:1056E00000B1CDE9025041463846FEF7F4FF2846A6
:1056F000FEF792FE01E000200490049805B0BDE89A
:10570000F08F00000549096809B9012005E0044946
:10571000096809B9022000E000207047500000200D
:105720006C0000202DE9F0414FF00008444800686B
:1057300000287CD143480068451C4248056015BBE1
:1057400041480068006808B9012000E0002050B915
:1057500000BF502080F31188BFF34F8FBFF36F8FCE
:1057600000BF00BFFEE73848076838480068364980
:1057700008603648076036480068401C34490860B5
:10578000FFF77AF800BF3348006885423CD300BF7A
:105790002D480068006808B9012000E0002020B111
:1057A0004FF0FF302B4908602DE027480068C068A3
:1057B000C4686668B54202D22648066023E0201D10
:1057C000FFF7B8F9A06A18B104F11800FFF7B2F9B1
:1057D00094F82C10012088401F49096808431E498D
:1057E0000860E16A01EB81011C4A02EB8100211D86
:1057F000FFF7EAF91A49E06A0968C96A8842C7D31B
:105800004FF00108C4E700BF15480068C06A00EB0C
:105810008000124951F82000012801D94FF00108F9
:105820001048006808B14FF0010805E0FFE70E4896
:105830000068401C0C4908604046BDE8F08100004B
:105840006C00002048000020380000203C000020B0
:105850005C000020640000204C000020580700205D
:1058600034000020580000205400002070B5054688
:105870002C460026002D55D02B480068844201D1CB
:10588000012000E0002050B900BF502080F31188B3
:10589000BFF34F8FBFF36F8F00BF00BFFEE7A06C59
:1058A00050B900BF502080F31188BFF34F8FBFF372
:1058B0006F8F00BF00BFFEE7A06C401EA064616C4C
:1058C000E06A88422ED0A06C60BB201DFFF732F941
:1058D00078B9E06A00EB8000144951F8200040B923
:1058E00094F82C1001208840114909688143104820
:1058F0000160606CE062E06AC0F10700A06194F8AA
:105900002C10012088400A490968084308490860AA
:10591000E16A01EB8101054A02EB8100211DFFF7DD
:1059200053F90126304670BD34000020580700208E
:105930004C00002070B50646F068C46854B900BF3A
:10594000502080F31188BFF34F8FBFF36F8F00BFDC
:1059500000BFFEE704F11800FFF7ECF815480068F7
:10596000A8B9201DFFF7E6F894F82C100120884014
:1059700011490968084310490860E16A01EB810197
:105980000E4A02EB8100211DFFF71EF904E004F12D
:1059900018010B48FFF718F90A49E06A0968C96A53
:1059A000884204D9012501200749086000E000254C
:1059B000284670BD6C0000204C00002058070020D5
:1059C0000C080020340000205800002070B500248E
:1059D00000263648006850B900BF502080F3118877
:1059E000BFF34F8FBFF36F8F00BF00BFFEE7FFF71E
:1059F000F7F82E480068401E2C49086008460068E9
:105A000000284FD12A48006800284BD024E02948BC
:105A1000C068C46804F11800FFF78CF8201DFFF778
:105A200089F894F82C10012088402349096808431C
:105A300021490860E16A01EB8101204A02EB810003
:105A4000211DFFF7C1F81E49E06A0968C96A88424A
:105A500002D301201B4908601648006808B90120DC
:105A600000E000200028D2D00CB1FEF705FF164858
:105A7000056865B100BFFFF755FE10B1012011495F
:105A800008606D1E002DF6D100200F4908600D48FA
:105A9000006838B1012630070C490860BFF34F8F0A
:105AA000BFF36F8FFFF7C6F8304670BD6C00002063
:105AB000440000200C0800204C0000205807002063
:105AC00034000020580000205400002004ED00E0C5
:105AD0002000000024000000000000000000000082
